S00B00007470302E7372656305
S11300000C9434000C9451000C9451000C94510045
S11300100C9451000C9451000C9451000C94510018
S11300200C9451000C9451000C9451000C94510008
S11300300C9451000C9451000C9473000C945100D6
S11300400C9451000C9451000C9451000C945100E8
S11300500C9451000C9451000C9451000C945100D8
S11300600C9451000C94510011241FBECFEFD8E022
S1130070DEBFCDBF11E0A0E0B1E0E0E7F1E002C0F7
S113008005900D92A230B107D9F721E0A2E0B1E0CA
S113009001C01D92A430B207E1F70E94A7000C949E
S11300A0B6000C94000020910201309103012F5FEF
S11300B03F4F30930301209302012436310520F091
S11300C01092030110920201209102013091030168
S11300D02817390720F485B1806285B9089585B160
S11300E08F7D85B908951F920F920FB60F92112438
S11300F02F933F934F935F936F937F938F939F932C
S1130100AF93BF93EF93FF9380910001863418F46B
S11301108F5F8093000180910001863411F4109266
S113012000018091000190E00E945300FF91EF9143
S1130130BF91AF919F918F917F916F915F914F91FB
S11301403F912F910F900FBE0F901F9018958FEF36
S113015084B984B5836884BD85B5826085BD89EF23
S113016087BD82E080936E007894FFCFF894FFCF30
S1050170010088
S9030000FC
