:100000000C9434000C943E000C943E000C943E0082
:100010000C943E000C943E000C943E000C943E0068
:100020000C943E000C943E000C943E000C943E0058
:100030000C943E000C943E000C943E000C943E0048
:100040000C943E000C943E000C943E000C943E0038
:100050000C943E000C943E000C943E000C943E0028
:100060000C943E000C943E0011241FBECFEFD8E04C
:10007000DEBFCDBF0E9440000C9468000C940000CD
:1000800087B18E7F87B988B1816088B9309B10C0F5
:100090008FE085B98FE39CE90197F1F700C000007C
:1000A00015B88FE39CE90197F1F700C00000EECF8F
:1000B00080EF85B98FE39CE90197F1F700C000005C
:1000C00015B88FE39CE90197F1F700C00000DECF7F
:0400D000F894FFCFD2
:00000001FF
