S00B00007470302E7372656305
S11300000C9434000C9449000C9449000C9449005D
S11300100C9449000C9449000C9449000C94490038
S11300200C9449000C9449000C9449000C94490028
S11300300C9449000C9449000C9449000C94490018
S11300400C9449000C9449000C9449000C94490008
S11300500C9449000C9449000C9449000C944900F8
S11300600C9449000C94490011241FBECFEFD8E032
S1130070DEBFCDBF11E0A0E0B1E0EAECF0E002C0E9
S113008005900D92A030B107D9F70E944B000C9453
S113009063000C9400008FEF84B98FEF85B92FEFC4
S11300A089E698E1215080409040E1F700C00000CB
S11300B015B82FEF89E698E1215080409040E1F790
S10D00C000C00000EACFF894FFCF5F
S9030000FC
